:100000000C942A000C9431080C9458080C947F0826
:100010000C94E0030C94B9030C9447000C942E0448
:100020000C9455040C9407040C9492030C946B03E9
:100030000C940E060C9447000C9447000C94470057
:100040000C9447000C9447000C9447000C94470014
:100050000C94470011241FBECFE5D8E0DEBFCDBF12
:1000600011E0A0E6B0E0ECE8FBE102C005900D92E3
:10007000A63DB107D9F712E0A6EDB1E001C01D928F
:10008000A930B107E1F70E945F0D0C94C40D0C94E8
:100090000000A8E1B0E0EFE4F0E00C94990D698372
:1000A0007A838B839C832D833E834F83588789E09B
:1000B000E82EF12CEC0EFD1ECE010196B7010E9438
:1000C0009A028E010F5E1F4FCE010596B8010E9465
:1000D0009A028985823040F08989823028F0C701F0
:1000E000B8010E94120301C08FEF6896E6E00C94FD
:1000F000B50DA8E1B0E0EFE7F0E00C94990D69834D
:100100007A838B839C832D833E834F83588789E03A
:10011000E82EF12CEC0EFD1ECE010196B7010E94D7
:100120009A028E010F5E1F4FCE010596B8010E9404
:100130009A028985823040F08989823028F0C7018F
:10014000B8010E94120301C081E06896E6E00C94B9
:10015000B50DACE0B0E0EFEAF0E00C949D0D6983E2
:100160007A838B839C83CE010196BE016B5F7F4FA8
:100170000E949A028D81823061F1823050F1843088
:1001800021F48E81882351F12EC02F81388537FDCF
:1001900020C06E812F3131051CF06623F9F023C099
:1001A0008EE190E0821B930B29853A854B855C8517
:1001B00004C056954795379527958A95D2F76623BB
:1001C000B1F050954095309521953F4F4F4F5F4F7F
:1001D0000EC020E030E040E050E009C02FEF3FEFDC
:1001E0004FEF5FE704C020E030E040E050E8B901A5
:1001F000CA012C96E2E00C94B90DA8E0B0E0E3E06F
:10020000F1E00C94950D7B018C0161157105810560
:10021000910519F482E0898360C083E089838EE1CF
:10022000C82ED12CDC82CB82ED82FE820F83188710
:10023000C801B7010E947601FC013197F7FF3BC06E
:10024000222733272E1B3F0B57016801022E04C0C3
:10025000D694C794B794A7940A94D2F740E050E09C
:1002600060E070E081E090E0A0E0B0E004C0880FC2
:10027000991FAA1FBB1F2A95D2F70197A109B1099F
:100280008E219F21A023B1230097A105B10521F064
:1002900041E050E060E070E04A295B296C297D294B
:1002A0004D835E836F8378878EE190E08E1B9F0B7A
:1002B0009C838B8312C0309781F00E2E04C0EE0C0D
:1002C000FF1C001F111F0A94D2F7ED82FE820F83DC
:1002D0001887CE1ADF0ADC82CB821A82CE01019601
:1002E0000E94C5012896EAE00C94B10DEF92FF92AE
:1002F0000F931F937B018C0180E0E81680E0F806E5
:1003000081E0080780E0180788F48FEFE816F10411
:100310000105110531F028F088E090E0A0E0B0E0A0
:1003200017C080E090E0A0E0B0E012C080E0E816E6
:1003300080E0F80680E0080781E0180728F088E1EF
:1003400090E0A0E0B0E004C080E190E0A0E0B0E088
:1003500020E230E040E050E0281B390B4A0B5B0BF9
:1003600004C016950795F794E7948A95D2F7F7019C
:10037000E753FF4F8081281B310941095109C90109
:100380001F910F91FF90EF900895DF92EF92FF92EF
:100390000F931F93FC01E480F58006811781D180C3
:1003A0008081823048F480E090E0A0E1B0E0E82A6B
:1003B000F92A0A2B1B2BA5C0843009F49FC0823078
:1003C00021F4EE24FF24870105C0E114F1040105A6
:1003D000110519F4E0E0F0E096C0628173819FEFAF
:1003E000623879070CF05BC022E83FEF261B370B21
:1003F0002A3131052CF020E030E040E050E02AC006
:10040000B801A701022E04C07695679557954795C8
:100410000A94D2F781E090E0A0E0B0E004C0880F39
:10042000991FAA1FBB1F2A95D2F70197A109B109ED
:100430008E219F21A023B1230097A105B10521F0B2
:1004400081E090E0A0E0B0E09A01AB01282B392BCD
:100450004A2B5B2BDA01C9018F779070A070B070C6
:1004600080349105A105B10539F427FF09C0205C4E
:100470003F4F4F4F5F4F04C0215C3F4F4F4F5F4F87
:10048000E0E0F0E02030A0E03A07A0E04A07A0E476
:100490005A0710F0E1E0F0E079018A0127C06038E6
:1004A000710564F5FB01E158FF4FD801C7018F7753
:1004B0009070A070B07080349105A105B10539F439
:1004C000E7FE0DC080E490E0A0E0B0E004C08FE360
:1004D00090E0A0E0B0E0E80EF91E0A1F1B1F17FF16
:1004E00005C016950795F794E794319687E0169521
:1004F0000795F794E7948A95D1F705C0EE24FF2479
:100500008701EFEFF0E06E2F679566276795902FD4
:100510009F77D794DD24D7948E2F8695492F462B2D
:10052000582F5D29B701CA011F910F91FF90EF90DD
:10053000DF900895FC01DB01408151812281622F0F
:100540006F7770E0221F2227221F9381892F880F47
:10055000822B282F30E0991F9927991F11969C9381
:10056000119721153105A9F5411551056105710551
:1005700011F482E037C082E89FEF13969C938E932C
:1005800012979A01AB0167E0220F331F441F551FDA
:100590006A95D1F783E08C930DC0220F331F441F5F
:1005A000551F12968D919C911397019713969C93CA
:1005B0008E931297203080E0380780E0480780E46F
:1005C000580758F314962D933D934D935C931797CA
:1005D00008952F3F310579F44115510561057105E5
:1005E00019F484E08C93089564FF03C081E08C9338
:1005F00012C01C9210C02F57304013963C932E937C
:10060000129783E08C9387E0440F551F661F771F76
:100610008A95D1F7706414964D935D936D937C9396
:10062000179708951F93DC01FB019C91923008F409
:1006300047C08081823008F443C0943051F4119651
:100640001C91843099F58181682F70E0611B7109DC
:100650003FC0843021F0923031F48230B9F1818191
:10066000882389F12DC011961C9111978230F1F0E9
:1006700081811817D9F412962D913C91139782819C
:1006800093818217930794F028173907BCF01496CA
:100690008D919D910D90BC91A02D24813581468135
:1006A0005781281739074A075B0718F4112341F0CF
:1006B0000AC082179307A407B50740F4112319F065
:1006C00061E070E005C06FEF7FEF02C060E070E0B6
:1006D000CB011F9108951F920F920FB60F92112414
:1006E0002F933F934F935F936F937F938F939F933A
:1006F000AF93BF93EF93FF93E091D601F091D701B1
:100700000995FF91EF91BF91AF919F918F917F914B
:100710006F915F914F913F912F910F900FBE0F906E
:100720001F9018951F920F920FB60F9211242F93BE
:100730003F934F935F936F937F938F939F93AF9369
:10074000BF93EF93FF93E091D801F091D901099500
:10075000FF91EF91BF91AF919F918F917F916F9199
:100760005F914F913F912F910F900FBE0F901F906F
:1007700018951F920F920FB60F9211242F933F934B
:100780004F935F936F937F938F939F93AF93BF9399
:10079000EF93FF93E091E001F091E1010995FF9162
:1007A000EF91BF91AF919F918F917F916F915F91E9
:1007B0004F913F912F910F900FBE0F901F90189562
:1007C0001F920F920FB60F9211242F933F934F93C6
:1007D0005F936F937F938F939F93AF93BF93EF93A9
:1007E000FF93E091E201F091E3010995FF91EF9110
:1007F000BF91AF919F918F917F916F915F914F9139
:100800003F912F910F900FBE0F901F9018951F9240
:100810000F920FB60F9211242F933F934F935F9334
:100820006F937F938F939F93AF93BF93EF93FF93B8
:10083000E091DA01F091DB010995FF91EF91BF9111
:10084000AF919F918F917F916F915F914F913F9168
:100850002F910F900FBE0F901F9018951F920F921F
:100860000FB60F9211242F933F934F935F936F9383
:100870007F938F939F93AF93BF93EF93FF93E091F9
:10088000DC01F091DD010995FF91EF91BF91AF91EE
:100890009F918F917F916F915F914F913F912F9198
:1008A0000F900FBE0F901F9018951F920F920FB6CA
:1008B0000F9211242F933F934F935F936F937F93E6
:1008C0008F939F93AF93BF93EF93FF93E091DE01DC
:1008D000F091DF010995FF91EF91BF91AF919F9149
:1008E0008F917F916F915F914F913F912F910F90D9
:1008F0000FBE0F901F901895813089F0813018F04D
:100900008230B9F418C062BF83B7816083BF83B7F8
:100910008D7F83BF83B78B7F83BF80E008956CBDDD
:100920008EB58E7F8EBD8EB582608EBD8EB58B7F6F
:100930008EBD81E0089564BD85B5816085BD85B5B6
:10094000826085BD85B58B7F85BD80E0089581304F
:1009500089F0813018F08230B9F418C012BE83B724
:100960008E7F83BF83B78D7F83BF83B78B7F83BF2A
:1009700080E008951CBC8EB58E7F8EBD8EB58D7FB8
:100980008EBD8EB58B7F8EBD81E0089514BC85B57C
:100990008E7F85BD85B58D7F85BD85B58B7F85BDFA
:1009A00080E008956130A1F0613018F0623089F57F
:1009B00022C0442319F0423061F505C09093D7015D
:1009C0008093D60108959093D9018093D80108951A
:1009D000442319F04230E9F405C09093DB01809381
:1009E000DA0108959093DD018093DC019093DF019B
:1009F0008093DE010895442319F0423051F405C07C
:100A00009093E1018093E00108959093E301809336
:100A1000E2010895813039F0813018F0823031F4EC
:100A200004C06CBF08956ABD089563BD08951CBCE1
:100A300081E48EBD80E288BF84E088BF089508B657
:100A400005FEFDCF1CBC81E08EBD80E288BF84E046
:100A500088BF089508B605FEFDCF089586B50895B0
:100A6000813039F0813018F0823031F404C012BE88
:100A700008951CBC089514BC0895813049F081305C
:100A800028F0823039F020E030E007C082B703C0A0
:100A90008CB501C084B5282F30E0C9010895789441
:100AA000613009F47AC0613030F0623079F163303E
:100AB00009F0B2C085C0813079F0813020F08230F9
:100AC00009F0AAC01AC083B78F7B83BF83B7877F23
:100AD00083BF89B781600EC08FB58E7F8FBD8FB504
:100AE0008D7F8FBD8EB5877F8EBD8EB58F7E8EBD7F
:100AF00089B7846089BF80E0089585B58F7B85BD07
:100B000085B5877F85BD89B78064F4CF8130B1F02A
:100B1000813020F0823009F07FC02FC083B78F7BF7
:100B200083BF83B7886083BF89B7826089BF83B77B
:100B3000806183BF83B78F7D83BFDDCF8FB58E7F0D
:100B40008FBD8FB58D7F8FBD8EB588608EBD8EB504
:100B50008F7E8EBD89B7806189BF89B7886089BF64
:100B60008FB580648FBD8FB58F778FBD8FB5806156
:100B70008FBD8FB58F7D8FBD4DC085B58F7B85BDFA
:100B800085B5886085BD89B7806889BF85B5806176
:100B900085BD85B58F7D85BDAECF882319F08230A8
:100BA000D9F507C083B7806483BF83B7877F83BFCE
:100BB00031C085B5806485BD85B5877F85BD2AC078
:100BC000882319F0823041F513C083B7806483BF56
:100BD00083B7886083BF83B78F7E83BF83B780620C
:100BE00083BF86E063E041E00E9461061CBE12C044
:100BF00085B5806485BD85B5886085BD85B58F7EEA
:100C000085BD85B5806285BD88E067E041E00E94D2
:100C1000610613BC81E0089581E008951F920F9250
:100C20000FB60F9211240F900FBE0F901F901895C2
:100C30008FB9779BFECF8FB108958FB9779BFECF89
:100C40008FB108958FEF8FB9779BFECF8FB1089545
:100C5000779BFECF8FB1089586E065E040E00E946B
:100C6000610686E067E040E00E94610686E064E09D
:100C700040E00E94610686E066E041E00E94610675
:100C80006E9A6C98089586E065E041E00E946106E6
:100C900086E067E041E00E94610686E064E041E0B2
:100CA0000E94610686E066E040E00E94610686E000
:100CB00064E041E00E94DD066E9A6C9A689A699839
:100CC00008954130D1F58630B9F0873020F4853071
:100CD00009F071C006C08730D1F0883009F06BC0D0
:100CE00021C02AB381E090E002C0880F991F6A9565
:100CF000E2F7282B2ABB5FC027B381E090E002C057
:100D0000880F991F6A95E2F7282B27BB54C024B39C
:100D100081E090E002C0880F991F6A95E2F7282BC6
:100D200024BB49C021B381E090E002C0880F991F25
:100D30006A95E2F7282B21BB3EC0442309F03BC053
:100D40008630B1F0873018F48530A9F505C08730BA
:100D5000D9F0883081F524C02AB381E090E002C048
:100D6000880F991F6A95E2F7809582238ABB23C07A
:100D700027B381E090E002C0880F991F6A95E2F7DF
:100D80008095822387BB17C024B381E090E002C026
:100D9000880F991F6A95E2F78095822384BB0BC068
:100DA00021B381E090E002C0880F991F6A95E2F7B5
:100DB0008095822381BB81E008954130D1F5863052
:100DC000B9F0873020F4853009F071C006C0873053
:100DD000D1F0883009F06BC021C02BB381E090E0E6
:100DE00002C0880F991F6A95E2F7282B2BBB5FC0C2
:100DF00028B381E090E002C0880F991F6A95E2F75E
:100E0000282B28BB54C025B381E090E002C0880F96
:100E1000991F6A95E2F7282B25BB49C022B381E0D0
:100E200090E002C0880F991F6A95E2F7282B22BB39
:100E30003EC0442309F03BC08630B1F0873018F43F
:100E40008530A9F505C08730D9F0883081F524C0F8
:100E50002BB381E090E002C0880F991F6A95E2F7FA
:100E6000809582238BBB23C028B381E090E002C031
:100E7000880F991F6A95E2F78095822388BB17C077
:100E800025B381E090E002C0880F991F6A95E2F7D0
:100E90008095822385BB0BC022B381E090E002C025
:100EA000880F991F6A95E2F78095822382BB81E0C3
:100EB00008958630A9F0873018F4853089F505C08B
:100EC0008730C9F0883061F521C02BB381E090E014
:100ED00002C0880F991F6A95E2F7282B2BBB20C010
:100EE00028B381E090E002C0880F991F6A95E2F76D
:100EF000282B28BB15C025B381E090E002C0880FE5
:100F0000991F6A95E2F7282B25BB0AC022B381E01E
:100F100090E002C0880F991F6A95E2F7282B22BB48
:100F200081E008958630A9F0873018F4853089F57E
:100F300005C08730C9F0883061F521C02BB381E04E
:100F400090E002C0880F991F6A95E2F728272BBB13
:100F500020C028B381E090E002C0880F991F6A95F5
:100F6000E2F7282728BB15C025B381E090E002C036
:100F7000880F991F6A95E2F7282725BB0AC022B37C
:100F800081E090E002C0880F991F6A95E2F7282758
:100F900022BB81E00895863069F0873018F48530EF
:100FA00029F406C0873041F0883041F020E011C0BC
:100FB00089B305C086B303C083B301C080B320E00A
:100FC00090E002C0959587956A95E2F7892B09F024
:100FD00021E0822F0895863061F0873018F4853043
:100FE00069F405C0873039F0883041F406C06BBB26
:100FF00005C068BB03C065BB01C062BB81E008954A
:10100000863099F0873018F4853049F505C087306F
:10101000A9F0883021F51BC0613019F48FEF8ABB2D
:101020001EC06623E1F41ABA1AC0613019F48FEFBA
:1010300087BB15C0662399F417BA11C0613019F443
:101040008FEF84BB0CC0662351F414BA08C0613022
:1010500019F48FEF81BB03C0662309F411BA81E054
:1010600008951F920F920FB60F9211242F933F9362
:101070004F935F936F937F938F939F93AF93BF93A0
:10108000EF93FF93E091E401F091E5010995FF9161
:10109000EF91BF91AF919F918F917F916F915F91F0
:1010A0004F913F912F910F900FBE0F901F90189569
:1010B0001F920F920FB60F9211242F933F934F93CD
:1010C0005F936F937F938F939F93AF93BF93EF93B0
:1010D000FF93E091E601F091E7010995FF91EF910F
:1010E000BF91AF919F918F917F916F915F914F9140
:1010F0003F912F910F900FBE0F901F9018951F9248
:101100000F920FB60F9211242F933F934F935F933B
:101110006F937F938F939F93AF93BF93EF93FF93BF
:10112000E091E801F091E9010995FF91EF91BF91FC
:10113000AF919F918F917F916F915F914F913F916F
:101140002F910F900FBE0F901F90189578948130BB
:1011500029F1813020F0823009F04FC03EC08BB7BA
:1011600080648BBF613059F0613030F0623051F0F3
:10117000633009F042C00CC085B78E7F0BC085B7C5
:101180008E7F02C085B7816085BF85B7826017C03A
:1011900085B7816085BF85B78D7F11C08BB78068AB
:1011A0008BBF613071F0613028F0623069F06330DC
:1011B00021F510C085B78B7F85BF85B7877F85BF39
:1011C0001AC085B78B7F02C085B7846085BF85B79D
:1011D0008860F5CF85B78460EFCF8BB780628BBF17
:1011E000613019F0623049F403C084B78F7B02C0CC
:1011F00084B7806484BF80E0089581E008958130E1
:1012000049F0813020F0823051F081E008958BB7B1
:101210008F7B02C08BB78F778BBF80E008958BB731
:101220008F7D8BBF80E00895E62FF0E0EE0FFF1F6B
:10123000EC51FE4F9183808308958091EB018F5F85
:101240008093EB0108956091ED017091EE01809122
:10125000EF019091F00108958091EA01882381F4D3
:1012600088E060E041E00E94DD0685E38A95F1F7C1
:1012700088E060E040E00E94DD0681E08093EA01C2
:10128000089588E060E041E00E94610688E062E045
:1012900040E00E94610688E062E00E94590780E019
:1012A00063E00E94A60887E699E060E00E941409C6
:1012B00080E060E00E944F058DE199E060E040E051
:1012C0000E94D20480E060E00E947C0408950F93A5
:1012D0001F930091EA01013039F58091EC018823D8
:1012E00039F40E9430050093EC011092EB011CC010
:1012F0001091EB0100E080E00E943D05800F911FFE
:1013000062ED71E00E94660D80E090E06093ED0177
:101310007093EE018093EF019093F0011092EB0136
:101320001092EC011092EA011F910F9108950E9412
:101330009207811181E0089540E00E94DD0681114D
:1013400081E0089541E00E94DD06811181E0089569
:1013500041E00E946106811181E00895A89820ED86
:1013600037E0F9013197F1F7A99AF9013197F1F7CF
:1013700098B3907F98BB982F92959F7098BBA9982F
:10138000F9013197F1F7A898A99AF9013197F1F786
:1013900098B3907F98BB98B38F70982B98BBA998FF
:1013A000C9010197F1F70895A09AA19A87B38F60B8
:1013B00087BB82E00E94AE0988E20E94AE0980ED00
:1013C00097E00197F1F781E00E94AE098CE00E945E
:1013D000AE09089581E00E94AE090895A89A20ED13
:1013E00037E0F9013197F1F7A99AF9013197F1F74F
:1013F00098B3907F98BB982F92959F7098BBA998AF
:10140000F9013197F1F7A89AA99AF9013197F1F703
:1014100098B3907F98BB8F7088BBA998C90101973A
:10142000F1F70895CF93DF93EC0102C00E94EE091B
:1014300089918823D9F7DF91CF910895813041F0C8
:10144000813058F0823031F0833031F060E005C0F7
:10145000605C03C0605F01C0605B862F80680E9493
:10146000AE0908950F931F938A010E941E0AC801B6
:101470000E94120A1F910F910895AB0141505040F4
:10148000DC01FC01E60FF71F20E030E008C09C9172
:1014900080818D9390832F5F3F4F41505040319713
:1014A00024173507A4F30895EF92FF920F931F932B
:1014B000CF93DF939C018B017A01C0E0D0E00EC096
:1014C000C9016AE070E00E947A0D805D80832196F8
:1014D000C9016AE070E00E947A0D9B01F801EC0FEF
:1014E000FD1F2115310561F780E302C0819321962C
:1014F000CE15DF05DCF3C801BE010E943D0AC00F16
:10150000D11F1882DF91CF911F910F91FF90EF9023
:101510000895CF93DF9320E030E001C0A083FC0169
:10152000E20FF31FA081FA01E20FF31F2F5F3F4F7D
:10153000AA23A1F78EE28083D901EB0102C0808348
:101540001196899131968823D1F7A40FB51F1C926B
:10155000DF91CF91089508950F931F93CF93DF9359
:101560008B01883090F4880F880F880F805C0E9470
:10157000AE09C0E0D0E0F801EC0FFD1F80810E94B1
:10158000EE092196C830D105B1F7DF91CF911F91B7
:101590000F910895CF93DF93C9ECD1E088816981E1
:1015A00040E00E94DD0688816A8141E00E94DD06FC
:1015B000239681E0C53DD80789F7DF91CF91089543
:1015C000CF93DF93C9ECD1E08881698141E00E942B
:1015D000DD0688816A8140E00E94DD06239681E075
:1015E000C53DD80789F7DF91CF9108950E94E00AA1
:1015F00085E066E040E00E94DD0608950E94E00A72
:1016000085E062E040E00E94DD0608958230A1F0AE
:10161000833028F4882341F08130E9F409C0833015
:1016200079F08430C1F412C082E063E370E00BC053
:1016300082E06CE470E007C082E06FE770E003C016
:1016400082E062EB70E00E940A05089582E06FEF8D
:1016500070E00E940A050895CF93DF9382E063E073
:101660000E944F0582E060E00E947C04C9ECD1E05A
:101670008881698141E00E94610688816A8141E038
:101680000E946106239681E0C53DD80789F7DF9166
:10169000CF9108950E94CB07089540E00E94610613
:1016A00008950F931F93182F062F40E00E946106A4
:1016B000812F602F41E00E94DD061F910F91089558
:1016C0008091F5019091F601A091F701B091F80198
:1016D0000196A11DB11D8093F5019093F601A09391
:1016E000F701B093F8010895EF92FF920F931F93C3
:1016F000CF93DF93C8ECD0E08091F1019091F2019B
:10170000A091F301B091F4018B349105A105B105CD
:1017100020F587E063E00E944A0B8823F1F4809172
:10172000F901882339F481E08093F9016BE040E608
:1017300050E006C01092F90181E06BE046E650E00F
:101740000E94320A87E062E00E94970980ED97E0EC
:10175000FE013197F1F70197D9F78091F10190914E
:10176000F201A091F301B091F4018A369105A1052F
:10177000B10508F4C1CF81E00E94A7040E942C09A2
:101780000E9423090E94FD006093050270930602E7
:1017900080930702909308020E94A900DC01CB010C
:1017A0006BEF71E043E050E00E94540A80E060E09B
:1017B0004CE650E00E94320A80E06AE043E750E0E5
:1017C0000E94320A81E060E048E750E00E94320A5D
:1017D00081E06AE04FE750E00E94320A81E066E073
:1017E0004BEF51E00E94320AE0900502F0900602B1
:1017F0000091070210910802C801B70120E030E013
:101800004CE852E40E94490018160CF06DC081E0CB
:101810000E94060B80E066E042E850E00E94320A37
:1018200080E06EE046E850E00E94320A0E94E00A42
:1018300080E69BE061E040E00E94D20481E060E04D
:101840000E947C048091F5019091F601A091F7012E
:10185000B091F8018B349105A105B10598F332C020
:1018600081E00E94A7041092F5011092F6011092F7
:10187000F7011092F80182E00E94060B80E066E01A
:1018800049E850E00E94320A0E942C090E94230974
:101890000E94FD0060930502709306028093070288
:1018A000909308020E94A900DC01CB016BEF71E06C
:1018B00043E050E00E94540A81E066E04BEF51E0C3
:1018C0000E94320A6091050270910602809107021F
:1018D0009091080220E030E04CE852E40E94490078
:1018E00018160CF4BDCF08CFC801B70120E030E0D6
:1018F00040EF51E40E9449001816E4F4C801B70112
:1019000020E030E04CE852E40E947900882394F40F
:1019100081E00E94060B80E066E042E850E00E9411
:10192000320A80E06EE046E850E00E94320A0E94EF
:10193000E00AE2CEC801B70120E030E040EA51E41D
:101940000E9449001816F4F4C801B70120E030E005
:1019500040EF51E40E9479008823A4F48091F901BA
:10196000882339F40E94FE0A80E06EE04DE850E0E2
:1019700006C00E94F60A80E06EE040E950E00E9456
:10198000320ABACEC801B70120E030E040EA51E4A3
:101990000E94790088230CF0AFCE81E00E94060BF4
:1019A00080E066E042E850E00E94320A80E06EE0AB
:1019B00043E950E00E94320A0E94CA0A9DCE81E0AB
:1019C00060E00E944F0581E060E00E947C048EE0B0
:1019D0009DE061E040E00E94D2040E942C0B0E9436
:1019E000D40987E063E00E94510B87E062E00E9427
:1019F000A80987E062E00E94A2090E9441090E94B2
:101A0000EA0980E060E046E950E00E94320A81E0A5
:101A100060E047EA50E00E94320A08958091F101A7
:101A20009091F201A091F301B091F4010196A11DF2
:101A3000B11D8093F1019093F201A093F301B09353
:101A4000F4018091F1019091F201A091F301B09124
:101A5000F4010F97A105B10589F18091F1019091F1
:101A6000F201A091F301B091F4014E97A105B105E7
:101A700029F18091F1019091F201A091F301B091CF
:101A8000F4018B349105A105B10549F40E94EA09DE
:101A900080E060E048EB50E00E94320A08958091B7
:101AA000F1019091F201A091F301B091F401893616
:101AB0009105A105B10511F40E94EA0908950E945B
:101AC000DF0C0E94740B80E090E00895AA1BBB1B02
:101AD00051E107C0AA1FBB1FA617B70710F0A61B2E
:101AE000B70B881F991F5A95A9F780959095BC014F
:101AF000CD01089597FB092E07260AD077FD04D063
:101B0000E5DF06D000201AF4709561957F4F0895A7
:101B1000F6F7909581959F4F08952F923F924F929F
:101B20005F926F927F928F929F92AF92BF92CF926D
:101B3000DF92EF92FF920F931F93CF93DF93CDB776
:101B4000DEB7CA1BDB0B0FB6F894DEBF0FBECDBFEE
:101B500009942A88398848885F846E847D848C84BF
:101B60009B84AA84B984C884DF80EE80FD800C81C8
:101B70001B81AA81B981CE0FD11D0FB6F894DEBFAB
:0C1B80000FBECDBFED010895F894FFCF1B
:101B8C004C65667420005269676874005370656513
:101B9C00643A004469723A00446973742E3A0063E3
:101BAC006D003330250046200035302500525200A0
:101BBC00524C00422000456E74657220526F746165
:101BCC0074652044697200446972656374696F6E50
:101BDC002D3E5269676874005374617274696E6744
:101BEC002050726F6772616D0000010202030303E3
:101BFC000304040404040404040505050505050593
:101C0C000505050505050505050606060606060671
:101C1C000606060606060606060606060606060658
:101C2C000606060606060606060707070707070741
:101C3C000707070707070707070707070707070728
:101C4C000707070707070707070707070707070718
:101C5C000707070707070707070707070707070708
:101C6C0007070707070707070708080808080808F1
:101C7C0008080808080808080808080808080808D8
:101C8C0008080808080808080808080808080808C8
:101C9C0008080808080808080808080808080808B8
:101CAC0008080808080808080808080808080808A8
:101CBC000808080808080808080808080808080898
:101CCC000808080808080808080808080808080888
:101CDC000808080808080808080808080808080878
:101CEC00080808080808080808050001050203058B
:061CFC00040505060700C7
:00000001FF
